{
  "contractName": "Vote",
  "abi": [
    {
      "inputs": [],
      "stateMutability": "nonpayable",
      "type": "constructor"
    },
    {
      "inputs": [],
      "name": "PROP_TIP",
      "outputs": [
        {
          "internalType": "uint256",
          "name": "",
          "type": "uint256"
        }
      ],
      "stateMutability": "view",
      "type": "function",
      "constant": true
    },
    {
      "inputs": [],
      "name": "VOTE_TIP",
      "outputs": [
        {
          "internalType": "uint256",
          "name": "",
          "type": "uint256"
        }
      ],
      "stateMutability": "view",
      "type": "function",
      "constant": true
    },
    {
      "inputs": [
        {
          "internalType": "string",
          "name": "content",
          "type": "string"
        }
      ],
      "name": "addProposal",
      "outputs": [
        {
          "internalType": "bool",
          "name": "",
          "type": "bool"
        }
      ],
      "stateMutability": "nonpayable",
      "type": "function"
    },
    {
      "inputs": [],
      "name": "getPorpList",
      "outputs": [
        {
          "components": [
            {
              "internalType": "address",
              "name": "author",
              "type": "address"
            },
            {
              "internalType": "string",
              "name": "content",
              "type": "string"
            },
            {
              "internalType": "uint256",
              "name": "agreeNum",
              "type": "uint256"
            },
            {
              "internalType": "uint256",
              "name": "disagreeNum",
              "type": "uint256"
            }
          ],
          "internalType": "struct Vote.Proposal[]",
          "name": "",
          "type": "tuple[]"
        }
      ],
      "stateMutability": "view",
      "type": "function",
      "constant": true
    },
    {
      "inputs": [
        {
          "internalType": "uint256",
          "name": "index",
          "type": "uint256"
        },
        {
          "internalType": "bool",
          "name": "support",
          "type": "bool"
        }
      ],
      "name": "vote",
      "outputs": [
        {
          "internalType": "bool",
          "name": "",
          "type": "bool"
        }
      ],
      "stateMutability": "nonpayable",
      "type": "function"
    }
  ],
  "bytecode": "0x608060405234801561001057600080fd5b5060405161001d9061007e565b604051809103906000f080158015610039573d6000803e3d6000fd5b506000806101000a81548173ffffffffffffffffffffffffffffffffffffffff021916908373ffffffffffffffffffffffffffffffffffffffff16021790555061008b565b611d7f80610edb83390190565b610e418061009a6000396000f3fe608060405234801561001057600080fd5b50600436106100575760003560e01c80632fdae3c51461005c5780636ede67d71461008c578063b2a64801146100aa578063c9d27afe146100c8578063d0b9328e146100f8575b600080fd5b61007660048036038101906100719190610668565b610116565b60405161008391906106d0565b60405180910390f35b6100946102fe565b6040516100a19190610704565b60405180910390f35b6100b2610303565b6040516100bf9190610704565b60405180910390f35b6100e260048036038101906100dd9190610777565b610308565b6040516100ef91906106d0565b60405180910390f35b610100610460565b60405161010d91906109bc565b60405180910390f35b60006101206105bb565b83838080601f016020809104026020016040519081016040528093929190818152602001838380828437600081840152601f19601f82011690508083019250505050505050816020018190525033816000019073ffffffffffffffffffffffffffffffffffffffff16908173ffffffffffffffffffffffffffffffffffffffff1681525050600181908060018154018082558091505060019003906000526020600020906004020160009091909190915060008201518160000160006101000a81548173ffffffffffffffffffffffffffffffffffffffff021916908373ffffffffffffffffffffffffffffffffffffffff160217905550602082015181600101908161022d9190610c19565b506040820151816002015560608201518160030155505060008054906101000a900473ffffffffffffffffffffffffffffffffffffffff1673ffffffffffffffffffffffffffffffffffffffff16639dc29fac3360036040518363ffffffff1660e01b81526004016102a0929190610cfa565b6020604051808303816000875af11580156102bf573d6000803e3d6000fd5b505050506040513d601f19601f820116820180604052508101906102e39190610d38565b156102f25760019150506102f8565b60009150505b92915050565b600181565b600381565b600080600180549050905080841061032457600091505061045a565b821561036a576001848154811061033e5761033d610d65565b5b9060005260206000209060040201600201600081548092919061036090610dc3565b91905055506103a6565b6001848154811061037e5761037d610d65565b5b906000526020600020906004020160030160008154809291906103a090610dc3565b91905055505b60008054906101000a900473ffffffffffffffffffffffffffffffffffffffff1673ffffffffffffffffffffffffffffffffffffffff16639dc29fac3360016040518363ffffffff1660e01b8152600401610402929190610cfa565b6020604051808303816000875af1158015610421573d6000803e3d6000fd5b505050506040513d601f19601f820116820180604052508101906104459190610d38565b1561045457600191505061045a565b60009150505b92915050565b60606001805480602002602001604051908101604052809291908181526020016000905b828210156105b257838290600052602060002090600402016040518060800160405290816000820160009054906101000a900473ffffffffffffffffffffffffffffffffffffffff1673ffffffffffffffffffffffffffffffffffffffff1673ffffffffffffffffffffffffffffffffffffffff16815260200160018201805461050d90610a3c565b80601f016020809104026020016040519081016040528092919081815260200182805461053990610a3c565b80156105865780601f1061055b57610100808354040283529160200191610586565b820191906000526020600020905b81548152906001019060200180831161056957829003601f168201915b505050505081526020016002820154815260200160038201548152505081526020019060010190610484565b50505050905090565b6040518060800160405280600073ffffffffffffffffffffffffffffffffffffffff1681526020016060815260200160008152602001600081525090565b600080fd5b600080fd5b600080fd5b600080fd5b600080fd5b60008083601f84011261062857610627610603565b5b8235905067ffffffffffffffff81111561064557610644610608565b5b6020830191508360018202830111156106615761066061060d565b5b9250929050565b6000806020838503121561067f5761067e6105f9565b5b600083013567ffffffffffffffff81111561069d5761069c6105fe565b5b6106a985828601610612565b92509250509250929050565b60008115159050919050565b6106ca816106b5565b82525050565b60006020820190506106e560008301846106c1565b92915050565b6000819050919050565b6106fe816106eb565b82525050565b600060208201905061071960008301846106f5565b92915050565b610728816106eb565b811461073357600080fd5b50565b6000813590506107458161071f565b92915050565b610754816106b5565b811461075f57600080fd5b50565b6000813590506107718161074b565b92915050565b6000806040838503121561078e5761078d6105f9565b5b600061079c85828601610736565b92505060206107ad85828601610762565b9150509250929050565b600081519050919050565b600082825260208201905092915050565b6000819050602082019050919050565b600073ffffffffffffffffffffffffffffffffffffffff82169050919050565b600061080e826107e3565b9050919050565b61081e81610803565b82525050565b600081519050919050565b600082825260208201905092915050565b60005b8381101561085e578082015181840152602081019050610843565b60008484015250505050565b6000601f19601f8301169050919050565b600061088682610824565b610890818561082f565b93506108a0818560208601610840565b6108a98161086a565b840191505092915050565b6108bd816106eb565b82525050565b60006080830160008301516108db6000860182610815565b50602083015184820360208601526108f3828261087b565b915050604083015161090860408601826108b4565b50606083015161091b60608601826108b4565b508091505092915050565b600061093283836108c3565b905092915050565b6000602082019050919050565b6000610952826107b7565b61095c81856107c2565b93508360208202850161096e856107d3565b8060005b858110156109aa578484038952815161098b8582610926565b94506109968361093a565b925060208a01995050600181019050610972565b50829750879550505050505092915050565b600060208201905081810360008301526109d68184610947565b905092915050565b7f4e487b7100000000000000000000000000000000000000000000000000000000600052604160045260246000fd5b7f4e487b7100000000000000000000000000000000000000000000000000000000600052602260045260246000fd5b60006002820490506001821680610a5457607f821691505b602082108103610a6757610a66610a0d565b5b50919050565b60008190508160005260206000209050919050565b60006020601f8301049050919050565b600082821b905092915050565b600060088302610acf7fffffffffffffffffffffffffffffffffffffffffffffffffffffffffffffffff82610a92565b610ad98683610a92565b95508019841693508086168417925050509392505050565b6000819050919050565b6000610b16610b11610b0c846106eb565b610af1565b6106eb565b9050919050565b6000819050919050565b610b3083610afb565b610b44610b3c82610b1d565b848454610a9f565b825550505050565b600090565b610b59610b4c565b610b64818484610b27565b505050565b5b81811015610b8857610b7d600082610b51565b600181019050610b6a565b5050565b601f821115610bcd57610b9e81610a6d565b610ba784610a82565b81016020851015610bb6578190505b610bca610bc285610a82565b830182610b69565b50505b505050565b600082821c905092915050565b6000610bf060001984600802610bd2565b1980831691505092915050565b6000610c098383610bdf565b9150826002028217905092915050565b610c2282610824565b67ffffffffffffffff811115610c3b57610c3a6109de565b5b610c458254610a3c565b610c50828285610b8c565b600060209050601f831160018114610c835760008415610c71578287015190505b610c7b8582610bfd565b865550610ce3565b601f198416610c9186610a6d565b60005b82811015610cb957848901518255600182019150602085019450602081019050610c94565b86831015610cd65784890151610cd2601f891682610bdf565b8355505b6001600288020188555050505b505050505050565b610cf481610803565b82525050565b6000604082019050610d0f6000830185610ceb565b610d1c60208301846106f5565b9392505050565b600081519050610d328161074b565b92915050565b600060208284031215610d4e57610d4d6105f9565b5b6000610d5c84828501610d23565b91505092915050565b7f4e487b7100000000000000000000000000000000000000000000000000000000600052603260045260246000fd5b7f4e487b7100000000000000000000000000000000000000000000000000000000600052601160045260246000fd5b6000610dce826106eb565b91507fffffffffffffffffffffffffffffffffffffffffffffffffffffffffffffffff8203610e0057610dff610d94565b5b60018201905091905056fea264697066735822122078419439b5ef47337c403383c69c508a16adf5cda54344397b9612e0a50e888564736f6c6343000811003360806040523480156200001157600080fd5b506040518060400160405280600781526020017f5a6a75636f696e000000000000000000000000000000000000000000000000008152506040518060400160405280600381526020017f5a4a43000000000000000000000000000000000000000000000000000000000081525081600390816200008f9190620004b9565b508060049081620000a19190620004b9565b505050620000b7336005620000bd60201b60201c565b620006bb565b600073ffffffffffffffffffffffffffffffffffffffff168273ffffffffffffffffffffffffffffffffffffffff16036200012f576040517f08c379a0000000000000000000000000000000000000000000000000000000008152600401620001269062000601565b60405180910390fd5b62000143600083836200023560201b60201c565b806002600082825462000157919062000652565b92505081905550806000808473ffffffffffffffffffffffffffffffffffffffff1673ffffffffffffffffffffffffffffffffffffffff1681526020019081526020016000206000828254620001ae919062000652565b925050819055508173ffffffffffffffffffffffffffffffffffffffff16600073ffffffffffffffffffffffffffffffffffffffff167fddf252ad1be2c89b69c2b068fc378daa952ba7f163c4a11628f55a4df523b3ef836040516200021591906200069e565b60405180910390a362000231600083836200023a60201b60201c565b5050565b505050565b505050565b600081519050919050565b7f4e487b7100000000000000000000000000000000000000000000000000000000600052604160045260246000fd5b7f4e487b7100000000000000000000000000000000000000000000000000000000600052602260045260246000fd5b60006002820490506001821680620002c157607f821691505b602082108103620002d757620002d662000279565b5b50919050565b60008190508160005260206000209050919050565b60006020601f8301049050919050565b600082821b905092915050565b600060088302620003417fffffffffffffffffffffffffffffffffffffffffffffffffffffffffffffffff8262000302565b6200034d868362000302565b95508019841693508086168417925050509392505050565b6000819050919050565b6000819050919050565b60006200039a620003946200038e8462000365565b6200036f565b62000365565b9050919050565b6000819050919050565b620003b68362000379565b620003ce620003c582620003a1565b8484546200030f565b825550505050565b600090565b620003e5620003d6565b620003f2818484620003ab565b505050565b5b818110156200041a576200040e600082620003db565b600181019050620003f8565b5050565b601f82111562000469576200043381620002dd565b6200043e84620002f2565b810160208510156200044e578190505b620004666200045d85620002f2565b830182620003f7565b50505b505050565b600082821c905092915050565b60006200048e600019846008026200046e565b1980831691505092915050565b6000620004a983836200047b565b9150826002028217905092915050565b620004c4826200023f565b67ffffffffffffffff811115620004e057620004df6200024a565b5b620004ec8254620002a8565b620004f98282856200041e565b600060209050601f8311600181146200053157600084156200051c578287015190505b6200052885826200049b565b86555062000598565b601f1984166200054186620002dd565b60005b828110156200056b5784890151825560018201915060208501945060208101905062000544565b868310156200058b578489015162000587601f8916826200047b565b8355505b6001600288020188555050505b505050505050565b600082825260208201905092915050565b7f45524332303a206d696e7420746f20746865207a65726f206164647265737300600082015250565b6000620005e9601f83620005a0565b9150620005f682620005b1565b602082019050919050565b600060208201905081810360008301526200061c81620005da565b9050919050565b7f4e487b7100000000000000000000000000000000000000000000000000000000600052601160045260246000fd5b60006200065f8262000365565b91506200066c8362000365565b925082820190508082111562000687576200068662000623565b5b92915050565b620006988162000365565b82525050565b6000602082019050620006b560008301846200068d565b92915050565b6116b480620006cb6000396000f3fe608060405234801561001057600080fd5b50600436106100b45760003560e01c806370a082311161007157806370a08231146101a357806395d89b41146101d35780639dc29fac146101f1578063a457c2d714610221578063a9059cbb14610251578063dd62ed3e14610281576100b4565b806306fdde03146100b9578063095ea7b3146100d757806318160ddd1461010757806323b872dd14610125578063313ce567146101555780633950935114610173575b600080fd5b6100c16102b1565b6040516100ce9190610dcd565b60405180910390f35b6100f160048036038101906100ec9190610e88565b610343565b6040516100fe9190610ee3565b60405180910390f35b61010f610366565b60405161011c9190610f0d565b60405180910390f35b61013f600480360381019061013a9190610f28565b610370565b60405161014c9190610ee3565b60405180910390f35b61015d61039f565b60405161016a9190610f97565b60405180910390f35b61018d60048036038101906101889190610e88565b6103a8565b60405161019a9190610ee3565b60405180910390f35b6101bd60048036038101906101b89190610fb2565b6103df565b6040516101ca9190610f0d565b60405180910390f35b6101db610427565b6040516101e89190610dcd565b60405180910390f35b61020b60048036038101906102069190610e88565b6104b9565b6040516102189190610ee3565b60405180910390f35b61023b60048036038101906102369190610e88565b610560565b6040516102489190610ee3565b60405180910390f35b61026b60048036038101906102669190610e88565b6105d7565b6040516102789190610ee3565b60405180910390f35b61029b60048036038101906102969190610fdf565b6105fa565b6040516102a89190610f0d565b60405180910390f35b6060600380546102c09061104e565b80601f01602080910402602001604051908101604052809291908181526020018280546102ec9061104e565b80156103395780601f1061030e57610100808354040283529160200191610339565b820191906000526020600020905b81548152906001019060200180831161031c57829003601f168201915b5050505050905090565b60008061034e610681565b905061035b818585610689565b600191505092915050565b6000600254905090565b60008061037b610681565b9050610388858285610852565b6103938585856108de565b60019150509392505050565b60006012905090565b6000806103b3610681565b90506103d48185856103c585896105fa565b6103cf91906110ae565b610689565b600191505092915050565b60008060008373ffffffffffffffffffffffffffffffffffffffff1673ffffffffffffffffffffffffffffffffffffffff168152602001908152602001600020549050919050565b6060600480546104369061104e565b80601f01602080910402602001604051908101604052809291908181526020018280546104629061104e565b80156104af5780601f10610484576101008083540402835291602001916104af565b820191906000526020600020905b81548152906001019060200180831161049257829003601f168201915b5050505050905090565b6000803073ffffffffffffffffffffffffffffffffffffffff166370a08231856040518263ffffffff1660e01b81526004016104f591906110f1565b602060405180830381865afa158015610512573d6000803e3d6000fd5b505050506040513d601f19601f820116820180604052508101906105369190611121565b90508281101561054a57600091505061055a565b6105548484610b5d565b60019150505b92915050565b60008061056b610681565b9050600061057982866105fa565b9050838110156105be576040517f08c379a00000000000000000000000000000000000000000000000000000000081526004016105b5906111c0565b60405180910390fd5b6105cb8286868403610689565b60019250505092915050565b6000806105e2610681565b90506105ef8185856108de565b600191505092915050565b6000600160008473ffffffffffffffffffffffffffffffffffffffff1673ffffffffffffffffffffffffffffffffffffffff16815260200190815260200160002060008373ffffffffffffffffffffffffffffffffffffffff1673ffffffffffffffffffffffffffffffffffffffff16815260200190815260200160002054905092915050565b600033905090565b600073ffffffffffffffffffffffffffffffffffffffff168373ffffffffffffffffffffffffffffffffffffffff16036106f8576040517f08c379a00000000000000000000000000000000000000000000000000000000081526004016106ef90611252565b60405180910390fd5b600073ffffffffffffffffffffffffffffffffffffffff168273ffffffffffffffffffffffffffffffffffffffff1603610767576040517f08c379a000000000000000000000000000000000000000000000000000000000815260040161075e906112e4565b60405180910390fd5b80600160008573ffffffffffffffffffffffffffffffffffffffff1673ffffffffffffffffffffffffffffffffffffffff16815260200190815260200160002060008473ffffffffffffffffffffffffffffffffffffffff1673ffffffffffffffffffffffffffffffffffffffff168152602001908152602001600020819055508173ffffffffffffffffffffffffffffffffffffffff168373ffffffffffffffffffffffffffffffffffffffff167f8c5be1e5ebec7d5bd14f71427d1e84f3dd0314c0f7b2291e5b200ac8c7c3b925836040516108459190610f0d565b60405180910390a3505050565b600061085e84846105fa565b90507fffffffffffffffffffffffffffffffffffffffffffffffffffffffffffffffff81146108d857818110156108ca576040517f08c379a00000000000000000000000000000000000000000000000000000000081526004016108c190611350565b60405180910390fd5b6108d78484848403610689565b5b50505050565b600073ffffffffffffffffffffffffffffffffffffffff168373ffffffffffffffffffffffffffffffffffffffff160361094d576040517f08c379a0000000000000000000000000000000000000000000000000000000008152600401610944906113e2565b60405180910390fd5b600073ffffffffffffffffffffffffffffffffffffffff168273ffffffffffffffffffffffffffffffffffffffff16036109bc576040517f08c379a00000000000000000000000000000000000000000000000000000000081526004016109b390611474565b60405180910390fd5b6109c7838383610d33565b60008060008573ffffffffffffffffffffffffffffffffffffffff1673ffffffffffffffffffffffffffffffffffffffff16815260200190815260200160002054905081811015610a4d576040517f08c379a0000000000000000000000000000000000000000000000000000000008152600401610a4490611506565b60405180910390fd5b8181036000808673ffffffffffffffffffffffffffffffffffffffff1673ffffffffffffffffffffffffffffffffffffffff16815260200190815260200160002081905550816000808573ffffffffffffffffffffffffffffffffffffffff1673ffffffffffffffffffffffffffffffffffffffff1681526020019081526020016000206000828254610ae091906110ae565b925050819055508273ffffffffffffffffffffffffffffffffffffffff168473ffffffffffffffffffffffffffffffffffffffff167fddf252ad1be2c89b69c2b068fc378daa952ba7f163c4a11628f55a4df523b3ef84604051610b449190610f0d565b60405180910390a3610b57848484610d38565b50505050565b600073ffffffffffffffffffffffffffffffffffffffff168273ffffffffffffffffffffffffffffffffffffffff1603610bcc576040517f08c379a0000000000000000000000000000000000000000000000000000000008152600401610bc390611598565b60405180910390fd5b610bd882600083610d33565b60008060008473ffffffffffffffffffffffffffffffffffffffff1673ffffffffffffffffffffffffffffffffffffffff16815260200190815260200160002054905081811015610c5e576040517f08c379a0000000000000000000000000000000000000000000000000000000008152600401610c559061162a565b60405180910390fd5b8181036000808573ffffffffffffffffffffffffffffffffffffffff1673ffffffffffffffffffffffffffffffffffffffff168152602001908152602001600020819055508160026000828254610cb5919061164a565b92505081905550600073ffffffffffffffffffffffffffffffffffffffff168373ffffffffffffffffffffffffffffffffffffffff167fddf252ad1be2c89b69c2b068fc378daa952ba7f163c4a11628f55a4df523b3ef84604051610d1a9190610f0d565b60405180910390a3610d2e83600084610d38565b505050565b505050565b505050565b600081519050919050565b600082825260208201905092915050565b60005b83811015610d77578082015181840152602081019050610d5c565b60008484015250505050565b6000601f19601f8301169050919050565b6000610d9f82610d3d565b610da98185610d48565b9350610db9818560208601610d59565b610dc281610d83565b840191505092915050565b60006020820190508181036000830152610de78184610d94565b905092915050565b600080fd5b600073ffffffffffffffffffffffffffffffffffffffff82169050919050565b6000610e1f82610df4565b9050919050565b610e2f81610e14565b8114610e3a57600080fd5b50565b600081359050610e4c81610e26565b92915050565b6000819050919050565b610e6581610e52565b8114610e7057600080fd5b50565b600081359050610e8281610e5c565b92915050565b60008060408385031215610e9f57610e9e610def565b5b6000610ead85828601610e3d565b9250506020610ebe85828601610e73565b9150509250929050565b60008115159050919050565b610edd81610ec8565b82525050565b6000602082019050610ef86000830184610ed4565b92915050565b610f0781610e52565b82525050565b6000602082019050610f226000830184610efe565b92915050565b600080600060608486031215610f4157610f40610def565b5b6000610f4f86828701610e3d565b9350506020610f6086828701610e3d565b9250506040610f7186828701610e73565b9150509250925092565b600060ff82169050919050565b610f9181610f7b565b82525050565b6000602082019050610fac6000830184610f88565b92915050565b600060208284031215610fc857610fc7610def565b5b6000610fd684828501610e3d565b91505092915050565b60008060408385031215610ff657610ff5610def565b5b600061100485828601610e3d565b925050602061101585828601610e3d565b9150509250929050565b7f4e487b7100000000000000000000000000000000000000000000000000000000600052602260045260246000fd5b6000600282049050600182168061106657607f821691505b6020821081036110795761107861101f565b5b50919050565b7f4e487b7100000000000000000000000000000000000000000000000000000000600052601160045260246000fd5b60006110b982610e52565b91506110c483610e52565b92508282019050808211156110dc576110db61107f565b5b92915050565b6110eb81610e14565b82525050565b600060208201905061110660008301846110e2565b92915050565b60008151905061111b81610e5c565b92915050565b60006020828403121561113757611136610def565b5b60006111458482850161110c565b91505092915050565b7f45524332303a2064656372656173656420616c6c6f77616e63652062656c6f7760008201527f207a65726f000000000000000000000000000000000000000000000000000000602082015250565b60006111aa602583610d48565b91506111b58261114e565b604082019050919050565b600060208201905081810360008301526111d98161119d565b9050919050565b7f45524332303a20617070726f76652066726f6d20746865207a65726f2061646460008201527f7265737300000000000000000000000000000000000000000000000000000000602082015250565b600061123c602483610d48565b9150611247826111e0565b604082019050919050565b6000602082019050818103600083015261126b8161122f565b9050919050565b7f45524332303a20617070726f766520746f20746865207a65726f20616464726560008201527f7373000000000000000000000000000000000000000000000000000000000000602082015250565b60006112ce602283610d48565b91506112d982611272565b604082019050919050565b600060208201905081810360008301526112fd816112c1565b9050919050565b7f45524332303a20696e73756666696369656e7420616c6c6f77616e6365000000600082015250565b600061133a601d83610d48565b915061134582611304565b602082019050919050565b600060208201905081810360008301526113698161132d565b9050919050565b7f45524332303a207472616e736665722066726f6d20746865207a65726f20616460008201527f6472657373000000000000000000000000000000000000000000000000000000602082015250565b60006113cc602583610d48565b91506113d782611370565b604082019050919050565b600060208201905081810360008301526113fb816113bf565b9050919050565b7f45524332303a207472616e7366657220746f20746865207a65726f206164647260008201527f6573730000000000000000000000000000000000000000000000000000000000602082015250565b600061145e602383610d48565b915061146982611402565b604082019050919050565b6000602082019050818103600083015261148d81611451565b9050919050565b7f45524332303a207472616e7366657220616d6f756e742065786365656473206260008201527f616c616e63650000000000000000000000000000000000000000000000000000602082015250565b60006114f0602683610d48565b91506114fb82611494565b604082019050919050565b6000602082019050818103600083015261151f816114e3565b9050919050565b7f45524332303a206275726e2066726f6d20746865207a65726f2061646472657360008201527f7300000000000000000000000000000000000000000000000000000000000000602082015250565b6000611582602183610d48565b915061158d82611526565b604082019050919050565b600060208201905081810360008301526115b181611575565b9050919050565b7f45524332303a206275726e20616d6f756e7420657863656564732062616c616e60008201527f6365000000000000000000000000000000000000000000000000000000000000602082015250565b6000611614602283610d48565b915061161f826115b8565b604082019050919050565b6000602082019050818103600083015261164381611607565b9050919050565b600061165582610e52565b915061166083610e52565b92508282039050818111156116785761167761107f565b5b9291505056fea26469706673582212209f9a379ee71c41750957234d1047041941b3c954f81175add005d536176f1c5064736f6c63430008110033",
  "immutableReferences": {},
  "source": "// SPDX-License-Identifier: MIT\npragma solidity >=0.4.22 <0.9.0;\n\nimport \"./Zjcoin.sol\";\n\ncontract Vote {\n    uint256 public constant PROP_TIP = 3;\n    uint256 public constant VOTE_TIP = 1;\n    Zjcoin zjcoin;\n\n    constructor() {\n        zjcoin = new Zjcoin();\n    }\n\n    struct Proposal {\n        address author;\n        string content;\n        uint256 agreeNum;\n        uint256 disagreeNum;\n    }\n\n    Proposal[] proposalList;\n\n    function addProposal(string calldata content) external returns (bool) {\n        Proposal memory newProposal;\n        newProposal.content = content;\n        newProposal.author = msg.sender;\n\n        proposalList.push(newProposal);\n        if(zjcoin.burn(msg.sender, PROP_TIP)){\n            return true;\n        }\n        return false;\n    }\n\n    function getPorpList() external view returns (Proposal[] memory) {\n        return proposalList;\n    }\n\n    function vote(uint256 index, bool support) external returns (bool) {\n        uint256 size = proposalList.length;\n        if (index >= size) {\n            return false;\n        }\n\n        if (support) {\n            proposalList[index].agreeNum++;\n        } else {\n            proposalList[index].disagreeNum++;\n        }\n        if(zjcoin.burn(msg.sender, VOTE_TIP)){\n            return true;\n        }\n        return false;\n    }\n}\n",
  "sourcePath": "/Users/luxiangyun/Documents/junior/blockchain/truffleHomework/contracts/contracts/vote.sol",
  "compiler": {
    "name": "solc",
    "version": "0.8.17+commit.8df45f5f.Emscripten.clang"
  },
  "schemaVersion": "3.4.10",
  "updatedAt": "2022-11-07T12:15:58.121Z",
  "networkType": "ethereum",
  "devdoc": {
    "kind": "dev",
    "methods": {},
    "version": 1
  },
  "userdoc": {
    "kind": "user",
    "methods": {},
    "version": 1
  }
}